{
    "contractName": "TRC1155",
    "abi": [
        {
            "anonymous": false,
            "inputs": [
                {
                    "indexed": true,
                    "internalType": "address",
                    "name": "_owner",
                    "type": "address"
                },
                {
                    "indexed": true,
                    "internalType": "address",
                    "name": "_operator",
                    "type": "address"
                },
                {
                    "indexed": false,
                    "internalType": "bool",
                    "name": "_approved",
                    "type": "bool"
                }
            ],
            "name": "ApprovalForAll",
            "type": "event"
        },
        {
            "anonymous": false,
            "inputs": [
                {
                    "indexed": true,
                    "internalType": "address",
                    "name": "_operator",
                    "type": "address"
                },
                {
                    "indexed": true,
                    "internalType": "address",
                    "name": "_from",
                    "type": "address"
                },
                {
                    "indexed": true,
                    "internalType": "address",
                    "name": "_to",
                    "type": "address"
                },
                {
                    "indexed": false,
                    "internalType": "uint256[]",
                    "name": "_ids",
                    "type": "uint256[]"
                },
                {
                    "indexed": false,
                    "internalType": "uint256[]",
                    "name": "_values",
                    "type": "uint256[]"
                }
            ],
            "name": "TransferBatch",
            "type": "event"
        },
        {
            "anonymous": false,
            "inputs": [
                {
                    "indexed": true,
                    "internalType": "address",
                    "name": "_operator",
                    "type": "address"
                },
                {
                    "indexed": true,
                    "internalType": "address",
                    "name": "_from",
                    "type": "address"
                },
                {
                    "indexed": true,
                    "internalType": "address",
                    "name": "_to",
                    "type": "address"
                },
                {
                    "indexed": false,
                    "internalType": "uint256",
                    "name": "_id",
                    "type": "uint256"
                },
                {
                    "indexed": false,
                    "internalType": "uint256",
                    "name": "_value",
                    "type": "uint256"
                }
            ],
            "name": "TransferSingle",
            "type": "event"
        },
        {
            "anonymous": false,
            "inputs": [
                {
                    "indexed": false,
                    "internalType": "string",
                    "name": "_value",
                    "type": "string"
                },
                {
                    "indexed": true,
                    "internalType": "uint256",
                    "name": "_id",
                    "type": "uint256"
                }
            ],
            "name": "URI",
            "type": "event"
        },
        {
            "inputs": [],
            "name": "TRC1155_ACCEPTED",
            "outputs": [
                {
                    "internalType": "bytes4",
                    "name": "",
                    "type": "bytes4"
                }
            ],
            "stateMutability": "view",
            "type": "function"
        },
        {
            "inputs": [
                {
                    "internalType": "address",
                    "name": "_owner",
                    "type": "address"
                },
                {
                    "internalType": "uint256",
                    "name": "_id",
                    "type": "uint256"
                }
            ],
            "name": "balanceOf",
            "outputs": [
                {
                    "internalType": "uint256",
                    "name": "",
                    "type": "uint256"
                }
            ],
            "stateMutability": "view",
            "type": "function"
        },
        {
            "inputs": [
                {
                    "internalType": "address[]",
                    "name": "_owners",
                    "type": "address[]"
                },
                {
                    "internalType": "uint256[]",
                    "name": "_ids",
                    "type": "uint256[]"
                }
            ],
            "name": "balanceOfBatch",
            "outputs": [
                {
                    "internalType": "uint256[]",
                    "name": "",
                    "type": "uint256[]"
                }
            ],
            "stateMutability": "view",
            "type": "function"
        },
        {
            "inputs": [
                {
                    "internalType": "address",
                    "name": "_owner",
                    "type": "address"
                },
                {
                    "internalType": "address",
                    "name": "_operator",
                    "type": "address"
                }
            ],
            "name": "isApprovedForAll",
            "outputs": [
                {
                    "internalType": "bool",
                    "name": "",
                    "type": "bool"
                }
            ],
            "stateMutability": "view",
            "type": "function"
        },
        {
            "inputs": [
                {
                    "internalType": "address",
                    "name": "_from",
                    "type": "address"
                },
                {
                    "internalType": "address",
                    "name": "_to",
                    "type": "address"
                },
                {
                    "internalType": "uint256[]",
                    "name": "_ids",
                    "type": "uint256[]"
                },
                {
                    "internalType": "uint256[]",
                    "name": "_values",
                    "type": "uint256[]"
                },
                {
                    "internalType": "bytes",
                    "name": "_data",
                    "type": "bytes"
                }
            ],
            "name": "safeBatchTransferFrom",
            "outputs": [],
            "stateMutability": "nonpayable",
            "type": "function"
        },
        {
            "inputs": [
                {
                    "internalType": "address",
                    "name": "_from",
                    "type": "address"
                },
                {
                    "internalType": "address",
                    "name": "_to",
                    "type": "address"
                },
                {
                    "internalType": "uint256",
                    "name": "_id",
                    "type": "uint256"
                },
                {
                    "internalType": "uint256",
                    "name": "_value",
                    "type": "uint256"
                },
                {
                    "internalType": "bytes",
                    "name": "_data",
                    "type": "bytes"
                }
            ],
            "name": "safeTransferFrom",
            "outputs": [],
            "stateMutability": "nonpayable",
            "type": "function"
        },
        {
            "inputs": [
                {
                    "internalType": "address",
                    "name": "_operator",
                    "type": "address"
                },
                {
                    "internalType": "bool",
                    "name": "_approved",
                    "type": "bool"
                }
            ],
            "name": "setApprovalForAll",
            "outputs": [],
            "stateMutability": "nonpayable",
            "type": "function"
        },
        {
            "inputs": [
                {
                    "internalType": "bytes4",
                    "name": "_interfaceId",
                    "type": "bytes4"
                }
            ],
            "name": "supportsInterface",
            "outputs": [
                {
                    "internalType": "bool",
                    "name": "",
                    "type": "bool"
                }
            ],
            "stateMutability": "pure",
            "type": "function"
        }
    ],
    "bytecode": "608060405234801561001057600080fd5b50610e49806100206000396000f3fe608060405234801561001057600080fd5b50600436106100875760003560e01c80635cdd242f1161005b5780635cdd242f1461010a578063a22cb46514610131578063e985e9c514610144578063f242432a1461018057600080fd5b8062fdd58e1461008c57806301ffc9a7146100b25780632eb2c2d6146100d55780634e1273f4146100ea575b600080fd5b61009f61009a3660046108b8565b610193565b6040519081526020015b60405180910390f35b6100c56100c03660046108fb565b6101bb565b60405190151581526020016100a9565b6100e86100e33660046109a6565b610201565b005b6100fd6100f8366004610a61565b6104b5565b6040516100a99190610b08565b61011863f23a6e6160e01b81565b6040516001600160e01b031990911681526020016100a9565b6100e861013f366004610b1b565b6105c0565b6100c5610152366004610b57565b6001600160a01b03918216600090815260016020908152604080832093909416825291909152205460ff1690565b6100e861018e366004610b8a565b61062c565b6000818152602081815260408083206001600160a01b03861684529091529020545b92915050565b60006001600160e01b031982166301ffc9a760e01b14806101ec57506001600160e01b03198216636cdb3d1360e11b145b156101f957506001919050565b506000919050565b6001600160a01b03871661021457600080fd5b84831461022057600080fd5b6001600160a01b03881633148061025e57506001600160a01b03881660009081526001602081815260408084203385529091529091205460ff161515145b61026757600080fd5b60005b858110156103ab57600087878381811061028657610286610c02565b90506020020135905060008686848181106102a3576102a3610c02565b9050602002013590506102f48160008085815260200190815260200160002060008e6001600160a01b03166001600160a01b031681526020019081526020016000205461079790919063ffffffff16565b60008084815260200190815260200160002060008d6001600160a01b03166001600160a01b031681526020019081526020016000208190555061037560008084815260200190815260200160002060008c6001600160a01b03166001600160a01b0316815260200190815260200160002054826107ba90919063ffffffff16565b6000928352602083815260408085206001600160a01b038e16865290915290922091909155506103a481610c2e565b905061026a565b50866001600160a01b0316886001600160a01b0316336001600160a01b03167f4a39dc06d4c0dbc64b70af90fd698a233a518aa5d07e595d983b8c0526c8f7fb898989896040516103ff9493929190610c79565b60405180910390a46104ab33898989898080602002602001604051908101604052809392919081815260200183836020028082843760009201919091525050604080516020808d0282810182019093528c82529093508c92508b91829185019084908082843760009201919091525050604080516020601f8c018190048102820181019092528a815292508a91508990819084018382808284376000920191909152506107d992505050565b5050505050505050565b60608382146104c357600080fd5b60008467ffffffffffffffff8111156104de576104de610cab565b604051908082528060200260200182016040528015610507578160200160208202803683370190505b50905060005b858110156105b65760008086868481811061052a5761052a610c02565b905060200201358152602001908152602001600020600088888481811061055357610553610c02565b90506020020160208101906105689190610cc1565b6001600160a01b03166001600160a01b031681526020019081526020016000205482828151811061059b5761059b610c02565b60209081029190910101526105af81610c2e565b905061050d565b5095945050505050565b3360008181526001602090815260408083206001600160a01b03871680855290835292819020805460ff191686151590811790915590519081529192917f17307eab39ab6107e8899845ad3d59bd9653f200f220920489ca2b5937696c31910160405180910390a35050565b6001600160a01b03851661063f57600080fd5b6001600160a01b03861633148061067d57506001600160a01b03861660009081526001602081815260408084203385529091529091205460ff161515145b61068657600080fd5b6000848152602081815260408083206001600160a01b038a1684529091529020546106b19084610797565b6000858152602081815260408083206001600160a01b038b811685529252808320939093558716815220546106e79084906107ba565b6000858152602081815260408083206001600160a01b038a8116808652918452938290209490945580518881529182018790529189169133917fc3d58168c5ae7397731d063d5bbf3d657854427343f4c083240f7aacaa2d0f62910160405180910390a461078f338787878787878080601f01602080910402602001604051908101604052809392919081815260200183838082843760009201919091525061086692505050565b505050505050565b6000828211156107a9576107a9610cdc565b6107b38284610cf2565b9392505050565b6000806107c78385610d05565b9050838110156107b3576107b3610cdc565b60405163bc197c8160e01b808252906001600160a01b0386169063bc197c819061080f908a908a90899089908990600401610d5e565b6020604051808303816000875af115801561082e573d6000803e3d6000fd5b505050506040513d601f19601f820116820180604052508101906108529190610dbc565b6001600160e01b0319161461078f57600080fd5b60405163f23a6e6160e01b808252906001600160a01b0386169063f23a6e619061080f908a908a90899089908990600401610dd9565b80356001600160a01b03811681146108b357600080fd5b919050565b600080604083850312156108cb57600080fd5b6108d48361089c565b946020939093013593505050565b6001600160e01b0319811681146108f857600080fd5b50565b60006020828403121561090d57600080fd5b81356107b3816108e2565b60008083601f84011261092a57600080fd5b50813567ffffffffffffffff81111561094257600080fd5b6020830191508360208260051b850101111561095d57600080fd5b9250929050565b60008083601f84011261097657600080fd5b50813567ffffffffffffffff81111561098e57600080fd5b60208301915083602082850101111561095d57600080fd5b60008060008060008060008060a0898b0312156109c257600080fd5b6109cb8961089c565b97506109d960208a0161089c565b9650604089013567ffffffffffffffff808211156109f657600080fd5b610a028c838d01610918565b909850965060608b0135915080821115610a1b57600080fd5b610a278c838d01610918565b909650945060808b0135915080821115610a4057600080fd5b50610a4d8b828c01610964565b999c989b5096995094979396929594505050565b60008060008060408587031215610a7757600080fd5b843567ffffffffffffffff80821115610a8f57600080fd5b610a9b88838901610918565b90965094506020870135915080821115610ab457600080fd5b50610ac187828801610918565b95989497509550505050565b600081518084526020808501945080840160005b83811015610afd57815187529582019590820190600101610ae1565b509495945050505050565b6020815260006107b36020830184610acd565b60008060408385031215610b2e57600080fd5b610b378361089c565b915060208301358015158114610b4c57600080fd5b809150509250929050565b60008060408385031215610b6a57600080fd5b610b738361089c565b9150610b816020840161089c565b90509250929050565b60008060008060008060a08789031215610ba357600080fd5b610bac8761089c565b9550610bba6020880161089c565b94506040870135935060608701359250608087013567ffffffffffffffff811115610be457600080fd5b610bf089828a01610964565b979a9699509497509295939492505050565b634e487b7160e01b600052603260045260246000fd5b634e487b7160e01b600052601160045260246000fd5b600060018201610c4057610c40610c18565b5060010190565b81835260006001600160fb1b03831115610c6057600080fd5b8260051b80836020870137939093016020019392505050565b604081526000610c8d604083018688610c47565b8281036020840152610ca0818587610c47565b979650505050505050565b634e487b7160e01b600052604160045260246000fd5b600060208284031215610cd357600080fd5b6107b38261089c565b634e487b7160e01b600052600160045260246000fd5b818103818111156101b5576101b5610c18565b808201808211156101b5576101b5610c18565b6000815180845260005b81811015610d3e57602081850181015186830182015201610d22565b506000602082860101526020601f19601f83011685010191505092915050565b6001600160a01b0386811682528516602082015260a060408201819052600090610d8a90830186610acd565b8281036060840152610d9c8186610acd565b90508281036080840152610db08185610d18565b98975050505050505050565b600060208284031215610dce57600080fd5b81516107b3816108e2565b6001600160a01b03868116825285166020820152604081018490526060810183905260a060808201819052600090610ca090830184610d1856fea2646970667358221220d41f18343ef0960cdb4f81923019e2187abfeef429fb2725fedf8059d86e1eb964736f6c63430008110033",
    "sourcePath": "c:/Users/STC/Documents/GitHub/BRUTUS-TOKEN/contracts/TRC1155-CoinNFT/TRC1155.sol",
    "compiler": {
        "name": "solc",
        "version": "0.8.17+commit.8df45f5f"
    },
    "functionHashes": {
        "TRC1155_ACCEPTED()": "5cdd242f",
        "balanceOf(address,uint256)": "00fdd58e",
        "balanceOfBatch(address[],uint256[])": "4e1273f4",
        "isApprovedForAll(address,address)": "e985e9c5",
        "safeBatchTransferFrom(address,address,uint256[],uint256[],bytes)": "2eb2c2d6",
        "safeTransferFrom(address,address,uint256,uint256,bytes)": "f242432a",
        "setApprovalForAll(address,bool)": "a22cb465",
        "supportsInterface(bytes4)": "01ffc9a7"
    },
    "gasEstimates": {
        "creation": {
            "codeDepositCost": "731400",
            "executionCost": "766",
            "totalCost": "732166"
        },
        "external": {
            "TRC1155_ACCEPTED()": "225",
            "balanceOf(address,uint256)": "2637",
            "balanceOfBatch(address[],uint256[])": "infinite",
            "isApprovedForAll(address,address)": "infinite",
            "safeBatchTransferFrom(address,address,uint256[],uint256[],bytes)": "infinite",
            "safeTransferFrom(address,address,uint256,uint256,bytes)": "infinite",
            "setApprovalForAll(address,bool)": "26607",
            "supportsInterface(bytes4)": "509"
        },
        "internal": {
            "_doSafeBatchTransferAcceptanceCheck(address,address,address,uint256[] memory,uint256[] memory,bytes memory)": "infinite",
            "_doSafeTransferAcceptanceCheck(address,address,address,uint256,uint256,bytes memory)": "infinite"
        }
    }
}